:020000040800F2
:10000000380D002061050008D1010008D301000867
:10001000D7010008DB010008DF0100080000000034
:10002000000000000000000000000000E3010008E4
:10003000E501000800000000E7010008E9010008F0
:100040007B0500087B0500087B0500087B05000890
:100050007B0500087B0500087B0500087B05000880
:100060007B0500087B0500087B0500087B05000870
:100070007B0500087B0500087B0500087B05000860
:100080007B0500087B0500087B0500087B05000850
:100090007B0500087B0500087B0500087B05000840
:1000A0007B0500087B0500087B0500087B05000830
:1000B000B9320008FF2F0008A13200087B050008B4
:1000C0007B0500087B0500087B0500087B05000810
:1000D0007B0500087B050008733D0008A738000871
:1000E000554600087B0500087B05000800F002F873
:1000F00000F05FF80AA090E8000C82448344AAF163
:100100000107DA4501D100F054F8AFF2090EBAE860
:100110000F0013F0010F18BFFB1A43F0010318473B
:1001200010C7000030C700000A444FF0000C10F860
:10013000013B13F0070408BF10F8014B1D1108BF65
:1001400010F8015B641E05D010F8016B641E01F805
:10015000016BF9D113F0080F1EBF10F8014BAD1C55
:100160000C1B09D16D1E58BF01F801CBFAD505E073
:1001700014F8016B01F8016B6D1EF9D59142D6D3CD
:10018000704700000023002400250026103A28BFF5
:1001900078C1FBD8520728BF30C148BF0B607047F9
:1001A000642908F01182002070471FB51FBD10B5EB
:1001B00010BD08F0D7FB1146FFF7F7FF00F006F976
:1001C00008F0F5FB03B4FFF7F2FF03BC02F0D0FA2E
:1001D000704700BFFEE700BFFEE700BFFEE700BFBD
:1001E000FEE7704770477047704700000CB500206D
:1001F000019000906C48006840F480306A490860C3
:1002000000BF6948006800F4003000900198401C6D
:100210000190009818B90198B0F5A06FF1D162482B
:10022000006800F4003010B10120009001E00020CF
:1002300000900098012843D15C48006840F010000D
:100240005A4908600846006820F003000860084624
:10025000006840F002000860534840685249486016
:100260000846406848600846406840F4806048603E
:100270000846406820F47C1048600846406840F416
:10028000E81048600846006840F08070086000BFD1
:100290004548006800F000700028F9D042484068E6
:1002A00020F00300404948600846406840F00200E2
:1002B000486000BF3C48406800F00C000828F9D1B5
:1002C0000CBD10B5FFF792FF10BD10B536480068A1
:1002D00040F001003449086008464068344908404D
:1002E0003149486008460068324908402E49086094
:1002F0000846006820F4802008600846406820F422
:10030000FE0048604FF41F008860FFF7DAFF4FF0EF
:1003100000602949086010BD10B5002100200022AE
:10032000214B5B6803F00C0121B1042906D0082998
:1003300028D107E0214B224C236027E01F4B204CA3
:10034000236023E0184B5B6803F47010164B5B6866
:1003500003F48032022303EB904022B9194B43434C
:10036000174C23600DE0104B5B6803F4003323B19E
:10037000144B4343124C236003E0104B4343104C97
:10038000236003E00D4B0E4C236000BF00BF064B03
:100390005B68C3F303130C4CE15C094B1B68CB4057
:1003A000074C236010BD00000010024000200240F6
:1003B0000000FFF8FFFFF6FE08ED00E000127A00F3
:1003C0000000002000093D00040000208AB002F077
:1003D00065F9002141F61F4002F040FE4FF4E13084
:1003E00003F070FC02F0A0FE02F0EBFE02F0C6FC8F
:1003F00002F076FF07F01CFA07F077FA02F00AFC29
:1004000003F028FC98E000242821684608F06EF9E3
:100410004A48B0F90000C0F30F20ADF8000047488B
:10042000008880B2ADF802004448B0F90200C0F381
:100430000F20ADF804004148408880B2ADF80600B6
:100440003E48B0F90400C0F30F20ADF808003B4867
:10045000808880B2ADF80A003948B0F90000C0F3D6
:100460000F20ADF80C003648008880B2ADF80E00C1
:100470003348B0F90200C0F30F20ADF81000304847
:10048000408880B2ADF812002D48B0F90400C0F3E6
:100490000F20ADF814002A48808880B2ADF816000D
:1004A00028480068C0F30F20ADF8180025480088E0
:1004B00080B2ADF81A0024480068C0F30F20ADF8F0
:1004C0001C002148008880B2ADF81E001F4800685B
:1004D000C0F30F20ADF820001C48008880B2ADF8B2
:1004E00022001B480068C0F30F20ADF82400184814
:1004F000008880B2ADF8260000BF0DE03DF8141072
:10050000144802F003F800BF4021124802F06CF8D2
:100510000028F9D0601CC4B2142CEFDB07F022FBDA
:1005200001200D49087000200C49087000BF0A48DE
:1005300000780028FBD100BF65E700002A010020F9
:10054000240100202C0000201C000020200000209E
:1005500030000020004400404900002048000020F6
:100560000948804709480047FEE7FEE7FEE7FEE747
:10057000FEE7FEE7FEE7FEE7FEE7FEE70448054983
:10058000054A064B70470000CB020008ED0000084A
:1005900038070020380D00203809002038090020D5
:1005A00031490143314A1160704770B50021002381
:1005B0000F22C47804B32D4C246804F4E064C4F51D
:1005C000E064210AC1F10403CA40447804FA03F14B
:1005D0008478144021430901254C0678A1550478FC
:1005E00004F01F050124AC4005786D11AD0005F144
:1005F000E025C5F8004109E0047804F01F05012456
:10060000AC401C4D0678761145F8264070BD1A4A5C
:100610000A400243154B1B1F1A60704739B1134A39
:10062000121D12680243114B1B1D1A6006E00F4A8F
:10063000121D126882430D4B1B1D1A60704704285F
:1006400008D14FF0E021096941F004014FF0E022A8
:10065000116107E04FF0E021096921F004014FF03A
:10066000E0221161704700000000FA050CED00E087
:1006700000E400E080E100E080FFFF1F10B50446C9
:10068000FA48844208D10121401500F0ABFE002158
:10069000601500F0A7FE17E0F548844208D101215B
:1006A000001500F09FFE0021201500F09BFE0BE0DE
:1006B000F048844208D10121C80300F093FE0021D4
:1006C0004FF4004000F08EFE10BD30B50246002011
:1006D00000235068E84C20400D790C6844EA05245A
:1006E000204350609068E54C2040D1E902542C43EF
:1006F0004D7944EA450420439060D06A20F47000AC
:100700000C7C641EE4B2234340EA0350D06230BD47
:1007100000210160017141718160C160012101749A
:10072000704721B1826842F00102826003E0826872
:1007300022F001028260704721B1826842F4807227
:10074000826003E0826822F480728260704710B594
:100750000023CBB21AB144681C43446002E04468F1
:100760009C43446010BD816841F00801816070477E
:10077000014600208A6802F008020AB1012000E068
:1007800000207047816841F0040181607047014694
:1007900000208A6802F004020AB1012000E0002073
:1007A000704721B1826842F4A002826003E082684F
:1007B00022F4A00282607047014600208A6802F499
:1007C00080020AB1012000E00020704710B50A46FF
:1007D00000210023416821F46041531E41EA433166
:1007E000416010BD21B1426842F40062426003E002
:1007F000426822F4006242607047F0B504460D463C
:1008000000200021092D11DDE068A5F10A0606EBA4
:100810004607072606FA07F18843A5F10A0606EB04
:10082000460603FA06F10843E0600CE0206905EB98
:100830004507072606FA07F1884305EB450603FA44
:1008400006F108432061072A0FDA606B561E06EB9B
:1008500086071F2606FA07F18843561E06EB860612
:1008600005FA06F10843606322E00D2A0FDA206BD7
:10087000D61F06EB86071F2606FA07F18843D61F08
:1008800006EB860605FA06F10843206310E0E06AED
:10089000A2F10D0606EB86071F2606FA07F188432C
:1008A000A2F10D0606EB860605FA06F10843E062A2
:1008B000F0BD21B1826842F48012826003E0826858
:1008C00022F48012826070470146C86C80B2704783
:1008D00066484C300068704721B1426842F480623B
:1008E000426003E0426822F480624260704721B1B6
:1008F000426842F48052426003E0426822F480522F
:10090000426070470A460021816821F4E0411143AA
:100910008160704721B1826842F40042826003E046
:10092000826822F400428260704721B1826842F4FA
:100930000212826003E0826822F402128260704731
:10094000014600208A6802F400120AB1012000E08A
:1009500000207047F0B5044615460020002200260E
:10096000092911DDE068A1F10A0707EB470C072709
:1009700007FA0CF29043A1F10A0707EB470703FAC5
:1009800007F21043E0600CE0206901EB410C0727FF
:1009900007FA0CF2904301EB410703FA07F2104308
:1009A0002061A06BC0F30156EF1C06F1010CA7EB10
:1009B0000C0707EB870C1F2707FA0CF29043EF1C7C
:1009C00006F1010CA7EB0C0707EB870701FA07F20A
:1009D0001043A063F0BD10B50A4600210023816BCF
:1009E00021F44011531E41EA0351816310BD08B543
:1009F000002300930090009B0B440093009B1A601F
:100A000008BD08B5024600200090009201F12800C0
:100A1000009B184400900098006880B208BD0A4608
:100A200000214168164B19401143416070474162F3
:100A3000826270470A460021416821F01F0111437C
:100A40004160704740B109490831096841F400012B
:100A5000064A0832116007E004490831096821F4A8
:100A60000001024A08321160704700000024014072
:100A700000280140003C0140FFFEF0FFFDF7F1FFC0
:100A8000FFFD3FFF0246002013680B400BB1012021
:100A900000E000207047CA430260704770B502460C
:100AA0000020002300240B125568CEB205EA06048C
:100AB00015681D4015B10CB1012000E0002070BD8B
:100AC00000220A12D34303607047000010B50120D2
:100AD00000F0A2FC002000F09FFC10BD2A49086035
:100AE00070472949091F0860704727498431086009
:100AF000704701460020254A10884FF67F4210407B
:100B00000843224A10807047014600201F4A10887F
:100B10004FF68072104008431C4A1080704708B599
:100B200000220092194A2C3A0092009A0244009244
:100B3000009A116008BD08B50146002000901348D6
:100B40002C3800900098084400900098008808BD58
:100B50000D489C300068C0B270470C4808300088CF
:100B600040F0010009490831088070470648A0306C
:100B70000068C0B2704705480830008840F00200A5
:100B8000024908310880704704860D422C6C0040F1
:100B9000002044490860091D0860091D0860091DFE
:100BA000086041483F4914310860704700213D49C1
:100BB0008279002A3AD00A46126803689A430B46A3
:100BC0001A600A1D126803689A430B1D1A600279A5
:100BD00011440A6803681A430A60324A08321268EC
:100BE00003689A432F4B08331A601A1D1268036872
:100BF0009A432C4B0C331A604279102A0ED11A1FDB
:100C0000126803681A43274B08331A601A1D1268CA
:100C100003681A43234B0C331A600DE021494279D3
:100C200011440A6803681A430A6005E00279114416
:100C30000A6803689A430A607047002101600171E5
:100C40000C214171002181717047164910310968EA
:100C50000143144A10321160704701460020114AC6
:100C6000143212680A400AB1012000E000207047E7
:100C70000C49143108607047014600200022094BDE
:100C80001B6803EA0102074B14331B680B4013B1C6
:100C90000AB1012000E000207047024914310860C9
:100CA0007047000000040140FFFF0F0010B504462C
:100CB000CC48844208D10121042000F093FB00219C
:100CC000042000F08FFB46E0C748844208D1012190
:100CD000082000F087FB0021082000F083FB3AE0A9
:100CE000C248844208D10121102000F07BFB002182
:100CF000102000F077FB2EE0BD48844208D101218E
:100D0000202000F06FFB0021202000F06BFB22E090
:100D1000B848844208D10121402000F063FB002143
:100D2000402000F05FFB16E0B348844208D1012167
:100D3000802000F057FB0021802000F053FB0AE0E8
:100D4000AE48844207D10121801500F04BFB002101
:100D5000A01500F047FB10BD10B50121084600F0BA
:100D600041FB0021012000F03DFB10BD2DE9F041C9
:100D7000024600250026002000230024002791F8C9
:100D800003C00CF00F0591F803C00CF0100CBCF17F
:100D9000000F03D091F802C04CEA050591F800C09D
:100DA000BCF1000F31D0146800202BE04FF0010C93
:100DB0000CFA00F3B1F800C00CEA03069E4220D101
:100DC00083004FF00F0C0CFA03F7BC4305FA03FC49
:100DD0004CEA040491F803C0BCF1280F06D14FF08F
:100DE000010C0CFA00FCC2F814C00AE091F803C030
:100DF000BCF1480F05D14FF0010C0CFA00FCC2F811
:100E000010C0401C0828D1D31460B1F800C0BCF158
:100E1000FF0F34DD546800202EE000F1080C4FF085
:100E2000010808FA0CF3B1F800C00CEA03069E4270
:100E300021D183004FF00F0C0CFA03F7BC4305FAE5
:100E400003FC4CEA040491F803C0BCF1280F05D15F
:100E500000F1080C08FA0CF8C2F8148091F803C0ED
:100E6000BCF1480F07D100F1080C4FF0010808FA57
:100E70000CF8C2F81080401C0828CED35460BDE89E
:100E8000F0814FF6FF710180022181700421C17051
:100E900070470246002093680B400BB1012000E030
:100EA000002070470146886880B2704702460020E3
:100EB000D3680B400BB1012000E0002070470146D1
:100EC000C86880B2704701617047416170470AB1DC
:100ED000016100E041617047C16070474FF48032AA
:100EE0000A43826181618261826982697047024638
:100EF0000020434B18684FF68073184040EA0210F8
:100F000008433F4B186070473E49C8617047F0B5D1
:100F10000A46002300240021002500F00046B6F117
:100F2000004F02D1364EF16901E0354E7168C0F3D1
:100F3000034583B200F44016B6F5401F08D121F0F6
:100F400070612F4E766826F070662D4F7E6012E03D
:100F500000F48016B6F5801F06D1032606FA05F4C4
:100F6000A14341F0706106E0460D360103FA06F632
:100F7000B14341F0706122B1460D360103FA06F625
:100F8000314300F00046B6F1004F02D11C4EF16132
:100F900001E01B4E7160F0BD30B500228B071C0FC5
:100FA0000F2303FA04F2164B08338C1053F8243045
:100FB0009343134C08348D1044F8253023468C108D
:100FC00053F824308C07240F00FA04F423430C4C0C
:100FD00008348D1044F8253030BD0A49DC310860F2
:100FE0007047000000080140000C01400010014063
:100FF0000014014000180140001C01400020014085
:10100000000001400000204210B50121080700F057
:10101000F6F900214FF0805000F0F1F910BD2A4997
:101020000862704728490861704701460020274A36
:10103000106820F0E0000843106070472249A0319A
:101040000860704710B502460020204B186820F059
:101050000300104318601E4B1B6843F004031C4C34
:101060002360012901D130BF00E020BF184B1B686D
:1010700023F00403164C236010BD1448006840F0B0
:101080000400124908600846006840F00200086049
:101090000F48006840F004000D49086000BF00BF21
:1010A00030BF704701460020084A52680A400AB122
:1010B000012000E0002070470449096841EA8001EE
:1010C000024A11607047000000000E4200700040AC
:1010D00010ED00E0DF48006840F00100DD490860E5
:1010E00008464068DC490840DA494860084600681C
:1010F000DA490840D74908600846006820F4802093
:1011000008600846406820F4FE0048604FF41F0065
:1011100088607047CF49096821F48031CD4A116059
:101120001146096821F480211160B0F5803F03D099
:10113000B0F5802F0ED106E0C649096841F4803130
:10114000C44A116007E0C349096841F4A021C14ABB
:10115000116000E000BF00BF704710B501460022DB
:10116000002300204A11012A02D1BA4C236806E06C
:10117000022A02D1B74C236A01E0B64C636A01F03F
:101180001F02012494401C400CB1012000E000200B
:1011900010BD38B5002000900024002500BF31208C
:1011A000FFF7DBFF05460098401C00900098B0F563
:1011B000A06F01D0002DF2D03120FFF7CEFF08B193
:1011C000012400E00024204638BD01460020A14A49
:1011D000106820F0F80040EAC10010607047A04994
:1011E00008607047024600209A4B586820F47C1033
:1011F00042EA01031843974B5860704798490866C4
:10120000704701460020934A506820F003000843CD
:10121000506070478F48406800F00C0070470146EE
:1012200000208C4A506820F0F0000843506070475E
:1012300001460020874A506820F4E060084350606F
:10124000704701460020834A506820F4605040EA0D
:10125000C1005060704729B17E4A527A02437D4BEB
:101260005A7204E07B4A527A82437A4B5A72704730
:101270007B49D8310860704701460020754A5068A4
:1012800020F440400843506070470021714A2032EA
:101290001170704A82F82010012802D004280AD167
:1012A00004E001216B4A2032117005E00521694AF2
:1012B0002032117000E000BF00BF7047694908602C
:1012C00070476449096A0143624A1162704765497F
:1012D00044390860704730B5002100220024002303
:1012E0005C4D6D6805F00C0121B1042905D0082979
:1012F00023D105E05C4D056022E05B4D05601FE0F9
:10130000544D6D6805F47012524D6D6805F48034CB
:10131000022505EB92421CB9544D554305600BE084
:101320004C4D6D6805F400351DB1504D55430560B9
:1013300002E04D4D5543056002E04B4D056000BF96
:1013400000BF444D6D6805F0F0010909484D6B5C24
:101350000568DD4045603F4D6D6805F4E061090AB0
:10136000434D6B5C4568DD4085603A4D6D6805F422
:101370006051C90A3E4D6B5C4568DD40C560354D26
:101380006D6805F44041890B3A4D6B5CC568B5FB4F
:10139000F3F5056130BD29B12E4A526902432D4B48
:1013A0005A6104E02B4A526982432A4B5A617047C2
:1013B00029B1284A92690243264B9A6104E0254AE2
:1013C00092698243234B9A61704729B1214AD269BD
:1013D0000243204BDA6104E01E4AD26982431D4B6E
:1013E000DA61704729B11B4AD2680243194BDA60AF
:1013F00004E0184AD2688243164BDA60704729B17C
:10140000144A12690243134B1A6104E0114A12692B
:101410008243104B1A617047124940390860704787
:101420000F49C86470470B49C87170470948406A42
:1014300040F0807007494862704701460020054A25
:1014400092680A400AB1012000E00020704701497B
:1014500088727047001002400000FFF8FFFFF6FEA0
:10146000000042428004424200127A0000093D001E
:10147000640000207400002010B50446FE48844239
:1014800008D10121C014FFF7ADFF0021E014FFF7E0
:10149000A9FFC4E0B4F1804F08D101210846FFF74D
:1014A000AEFF00210120FFF7AAFFB8E0F348844215
:1014B00008D101210220FFF7A2FF00210220FFF73F
:1014C0009EFFACE0EE48844208D101210420FFF7E2
:1014D00096FF00210420FFF792FFA0E0E948844234
:1014E00008D101210820FFF78AFF00210820FFF71B
:1014F00086FF94E0E448844208D101211020FFF7E0
:101500007EFF00211020FFF77AFF88E0DF48844249
:1015100008D101212020FFF772FF00212020FFF7D2
:101520006EFF7CE0DA48844208D101214014FFF7C5
:1015300059FF00216014FFF755FF70E0D548844241
:1015400009D10121C804FFF74DFF00214FF400200D
:10155000FFF748FF63E0D048844209D10121080524
:10156000FFF740FF00214FF48010FFF73BFF56E0EC
:10157000CA48844209D101214805FFF733FF002101
:101580004FF40010FFF72EFF49E0C548844208D110
:1015900001214020FFF733FF00214020FFF72FFFFC
:1015A0003DE0C048844208D101218020FFF727FF99
:1015B00000218020FFF723FF31E0BB48844208D19F
:1015C00001218015FFF71BFF0021A015FFF717FF72
:1015D00025E0B648844209D101210804FFF702FF43
:1015E00000214FF48030FFF7FDFE18E0B048844240
:1015F00009D101214804FFF7F5FE00214FF4003026
:10160000FFF7F0FE0BE0AB48844208D101218804CB
:10161000FFF7E8FE00214FF48020FFF7E3FE10BD46
:1016200000220288944B98420ED0994B98420BD0DE
:10163000B0F1804F08D0914B984205D0904B984222
:1016400002D0904B984204D14FF68F731A404B88CA
:101650001A438D4B984207D08C4B984204D04FF6DA
:10166000FF431A40CB881A4302808B8883850B88FE
:101670000385814B98420BD0854B984208D08B4B09
:10168000984205D08A4B984202D08A4B984201D1A9
:101690000B7A038601238382704770B500240022F1
:1016A0000023058C4FF6FE7635400584028C838836
:1016B000048B4FF68F752C40B51E2C400D882C43A3
:1016C000751E2A400D892A434D882A436A4DA84237
:1016D0000BD06F4DA84208D0744DA84205D0744D70
:1016E000A84202D0734DA84213D14FF6F7752A4095
:1016F0004D892A434FF6FB752A408D882A434FF6C1
:10170000FF652B404FF6FF552B408D892B43CD892C
:101710002B4383800483CD888586028470BD70B599
:10172000002400220023058C4FF6EF763540058417
:10173000028C8388048B48F6FF752C404FF6FF45DA
:101740002C400D884FF6FF7606EA05252C434FF610
:10175000DF752A400D8906EA05152A434D8806EAF9
:1017600005152A43444DA84202D0494DA8421DD137
:101770004FF67F752A404D894FF6FF7606EA05152C
:101780002A434FF6BF752A408D8806EA05152A437D
:101790004FF6FF352B404FF2FF752B408D8906EA3F
:1017A00085052B43CD8906EA85052B438380048379
:1017B000CD880587028470BD70B500240022002307
:1017C000058C4FF6FF6635400584028C8388848B38
:1017D0004FF68F752C404FF6FC752C400D882C432E
:1017E0004FF6FF552A400D894FF6FF7606EA05258C
:1017F0002A434D8806EA05252A431F4DA84202D0F8
:10180000234DA8421DD14FF2FF752A404D894FF656
:10181000FF7606EA05252A434FF6FF352A408D88D4
:1018200006EA05252A434EF6FF752B404DF6FF7557
:101830002B408D8906EA05152B43CD8906EA05154F
:101840002B4383808483CD888587028470BD70B5E7
:10185000002200230024058C4EF6FF7635400584D7
:10186000038C8488828B48F6FF752A404FF6FF452B
:101870002A400D8820E00000002C014000040040B8
:1018800000080040000C0040001000400014004020
:1018900000340140004C0140005001400054014020
:1018A00000180040001C00400020004000400140A3
:1018B00000440140004801404FF6FF7606EA052546
:1018C0002A434DF6FF752B400D8906EA05352B435B
:1018D0004D8806EA05352B43FA4DA84202D0FA4D51
:1018E000A84208D14BF6FF752C408D894FF6FF7644
:1018F00006EA85152C4384808283CD88A0F8405069
:10190000038470BD828B4FF2FF331A408283828B37
:101910004FF6FF7303EA01231A4382837047F0B541
:101920000C461546002200210026078C4EF6FF7C4F
:1019300007EA0C070784828B018C4FF6FF7707EAD2
:10194000043640F6FF473A404FF6FF7707EA05278F
:101950003A434FF6FF7707EA03373A43D94FB84285
:101960000ED0D94FB8420BD0B0F1804F08D0D74F2E
:10197000B84205D0D64FB84202D0D64FB84206D1B1
:101980004DF6FF77394046F48057394305E047F676
:10199000FF57394044F48057394382830184F0BDB6
:1019A000828B4FF6F3731A408283828B0A438283C1
:1019B0007047F0B50C461546002200210026078C22
:1019C0004FF6FF6C07EA0C070784828B018C4FF6F9
:1019D000FF7707EA04264FF60C773A404FF6FF7779
:1019E00007EA03172F433A43B64FB8420ED0B64F1B
:1019F000B8420BD0B0F1804F08D0B44FB84205D0F8
:101A0000B34FB84202D0B34FB84206D14FF6FF579A
:101A1000394046F48077394305E04FF2FF573940AB
:101A200044F48077394382830184F0BD028B4FF206
:101A3000FF331A400283028B4FF6FF7303EA012340
:101A40001A4302837047F0B50C4615460022002168
:101A50000026078C4FF6EF7C07EA0C070784028B01
:101A6000018C4FF6FF7707EA041640F6FF473A402D
:101A70004FF6FF7707EA03373A434FF6FF7707EA57
:101A800005273A438F4FB8420ED08F4FB8420BD044
:101A9000B0F1804F08D08D4FB84205D08C4FB8427E
:101AA00002D08C4FB84206D14FF6DF77394046F06E
:101AB0001007394305E04FF65F77394044F01007CF
:101AC000394302830184F0BD028B4FF6F3731A4051
:101AD0000283028B0A4302837047F0B50C46154619
:101AE00000220021068C4FF6FE773E400684028BD2
:101AF000018C4FF60C7632407E1C06EA03162E430C
:101B00003243704EB0420ED06F4EB0420BD0B0F1A7
:101B1000804F08D06D4EB04205D06D4EB04202D01D
:101B20006C4EB04206D14FF6FD76314044F00106CE
:101B3000314305E04FF6F576314044F0010631437C
:101B400002830184F0BD70B505460C465D488542B0
:101B50000ED05D4885420BD0B5F1804F08D05B4870
:101B6000854205D05A48854202D05A48854200D164
:101B700000E000BF208850B92389A28861882846E8
:101B8000FFF7ABFFE1882846FFF79EFF25E020889E
:101B900004280AD12389A28861882846FFF753FFC9
:101BA000E1882846FFF742FF17E0208808280AD17D
:101BB0002389A28861882846FFF7FBFEE188284632
:101BC000FFF7EEFE09E02389A28861882846FFF727
:101BD000A6FEE1882846FFF795FE70BD2DE9F0418D
:101BE00005460C4600260127608808B9022600E059
:101BF0000026A088012801D1022700E001272088C3
:101C0000A0B92389A28861882846FFF766FFE1888A
:101C10002846FFF759FF23893A4631462846FFF701
:101C200012FFE1882846FFF701FF13E02389A2880D
:101C300061882846FFF707FFE1882846FFF7F6FE90
:101C400023893A4631462846FFF747FFE188284670
:101C5000FFF73AFFBDE8F0810A884B881A438B886A
:101C60001A43CB881A430B891A434B891A438B8931
:101C70001A43A0F8442070474FF6FF71818000217D
:101C80000180C18041800172704700210180418044
:101C90008180C180018141818181C18170470021A2
:101CA00001804180012181800021C1800181704734
:101CB0000021018041808180C18001814181818139
:101CC00070470000002C0140003401400004004037
:101CD00000080040000C004021B1028842F00102DF
:101CE000028004E002884FF6FE731A4002807047BB
:101CF00031B1B0F8442042F40042A0F8442005E09D
:101D0000B0F84420C2F30E02A0F8442070471AB184
:101D100083890B43838102E083898B4383817047EE
:101D20008182704741EA0203A0F8483070471AB137
:101D300083890B43838102E083898B4383817047CE
:101D400001894FF6F8721140018170470A4600215F
:101D500001894FF68F73194011430181704730B5E7
:101D600004460D4629462046FFF7F0FF208940F043
:101D70000700208130BD2DE9F04104460D4616468E
:101D80001F46602D06D13B46012231462046FFF713
:101D90005AFE05E03B46012231462046FFF79DFEF4
:101DA00029462046FFF7D2FF208940F00700208116
:101DB000BDE8F08130B50C4600210189C9B24FF66B
:101DC000FF7505EA0325154325432943018130BDED
:101DD0002DE9F04105460E46174698460024434635
:101DE0003A4631462846FFF7E5FF2C894FF6F87052
:101DF000044044F007044FF68F70044044F0700430
:101E00002C81BDE8F081F0B504460D4616461F460C
:101E10003B46324629462046FFF7CCFF208940F456
:101E200080402081F0BD0185828270470A460021F2
:101E300001884FF68F731940114301807047F0B548
:101E40000C4615461E460021002200230189028B04
:101E5000038C4FF6F877394021434FF6FC473A4060
:101E600040F201173A434FF6DD773B404FF6FF77DC
:101E700007EA06172F433B43018102830384F0BD29
:101E80000A460021018B4FF68F73194011430183DD
:101E900070470A460021018B48F6FF7319404FF640
:101EA000FF7303EA02231943018370470A460021A6
:101EB000818B4FF68F7319401143818370470A4617
:101EC0000021818B48F6FF7319404FF6FF7303EA38
:101ED000022319438183704721B1028842F08002B6
:101EE000028004E002884FF67F731A400280704738
:101EF00021B1828842F00402828004E082884FF699
:101F0000FB731A408280704721B1828842F0080238
:101F1000828004E082884FF6F7731A40828070470F
:101F200021B1828842F00102828004E082884FF66B
:101F3000FE731A40828070470A460021018B4FF6DB
:101F4000F77319401143018370470A460021018B42
:101F50004FF2FF7319404FF6FF7303EA0223194350
:101F6000018370470A460021818B4FF6F7731940B1
:101F70001143818370470A460021818B4FF2FF7322
:101F800019404FF6FF7303EA022319438183704718
:101F90000A460021018B4FF6FB7319401143018360
:101FA00070470A460021018B4FF6FF3319404FF668
:101FB000FF7303EA02231943018370470A46002195
:101FC000818B4FF6FB7319401143818370470A469A
:101FD0000021818B4FF6FF3319404FF6FF7303EA60
:101FE00002231943818370470A460021018B4FF673
:101FF0007F7319401143018370470A460021018B0A
:10200000C1F30E014FF6FF7303EA02231943018364
:1020100070470A460021818B4FF67F7319401143A8
:10202000818370470A460021818BC1F30E014FF670
:10203000FF7303EA02231943818370470A46002194
:10204000018C4FF6FD7319401143018470470A4615
:102050000021018C4FF6F77319401143018470473A
:102060000A460021018C4FF6DF7319404FF6FF73CB
:1020700003EA02131943018470470A460021018CC8
:102080004FF67F7319404FF6FF7303EA02131943AB
:10209000018470470A460021018C4FF6FF53194016
:1020A0004FF6FF7303EA02231943018470470A467F
:1020B0000021018C4FF2FF7319404FF6FF7303EAC2
:1020C00002231943018470470A460021018C4DF612
:1020D000FF7319404FF6FF7303EA0233194301847B
:1020E000704730B5002301248C40A3B2048C9C437C
:1020F0000484048C02FA01F5ADB22C43048430BD93
:1021000030B5002304248C40A3B2048C9C43048487
:10211000048C02FA01F5ADB22C43048430BD70B5D5
:102120000346002000241846183001258D40ACB22B
:102130001D8CA5431D8409B1082909D100EB61005C
:10214000056825F0700505600568154305600EE01B
:102150000D1FC5F34E052844056825F4E0450560CC
:1021600005684FF6FF7606EA02263543056070BD26
:1021700021B1028842F00202028004E002884FF698
:10218000FD731A400280704721B1028842F00402B8
:10219000028004E002884FF6FB731A400280704709
:1021A00021B1828842F08002828004E082884FF66A
:1021B0007F731A408280704702884FF6F7731A4087
:1021C000028002880A430280704782884FF68F732C
:1021D0001A40828082880A438280704702894FF6C3
:1021E000F8731A40028102890A430281704702890A
:1021F0004FF67F731A40028102890A4302817047B9
:102200008184704781857047818670470187704758
:1022100081877047A0F84010704702884FF6FF434F
:102220001A40028002880A43028070470146888E65
:1022300070470146088F70470146888F70470146F6
:10224000B1F8400070470146888C70470146088D00
:10225000704702460020138A0B400BB1012000E0BA
:1022600000207047CA430282704730B50246002002
:1022700000230024158A05EA0103958905EA010473
:1022800013B10CB1012000E0002030BDCA4302822E
:102290007047000010B50446FB48844209D1012173
:1022A0008803FFF79FF800214FF48040FFF79AF86A
:1022B00032E0F648844209D101214804FFF79FF833
:1022C00000214FF40030FFF79AF825E0F0488442EF
:1022D00009D101218804FFF792F800214FF48020F2
:1022E000FFF78DF818E0EB48844209D10121C804BA
:1022F000FFF785F800214FF40020FFF780F80BE08E
:10230000E548844208D101210805FFF778F800214B
:102310004FF48010FFF773F810BD2DE9F04786B039
:1023200005460E460024A24600BFA1460027B089FC
:1023300000B100BF2F462C8A4CF6FF700440F08895
:1023400004432C82AC894EF6F3100440B0883189E6
:102350000843718908430443AC81AC8A4FF6FF40BF
:102360000440B0890443AC8201A8FEF7B4FFC6481C
:10237000874202D1DDF810A001E0DDF80CA0A889A9
:1023800000F4004040B10AEBCA0000EB0A103168CB
:102390004900B0FBF1F807E00AEBCA0000EB0A10B5
:1023A00031688900B0FBF1F86420B8FBF0F004015B
:1023B0002009642101FB1089A88900F4004040B184
:1023C000322000EBC900B0FBF1F000F0070004433D
:1023D00008E0322000EB09106421B0FBF1F000F0BE
:1023E0000F0004432C8106B0BDE8F0874FF416516E
:1023F000016000218180C18001810C214181002187
:102400008181704710B502460020108A4FF2FF0309
:1024100018400B884C8823438C882343CC88234363
:102420001843108210BD0021018041808180C1804D
:10243000704721B1828942F40052828104E082898E
:102440004DF6FF731A4082817047F0B503460024B1
:1024500000260025002040F66A17B94200D100BFCF
:102460001846C1F3421401F01F06012707FA06F5CA
:10247000012C01D10C3004E0022C01D1103000E01D
:1024800014301AB107682F43076002E00768AF43B2
:102490000760F0BD1AB1838A0B43838202E0838A0E
:1024A0008B4383827047028A4FF6F0731A40028290
:1024B000028A0A430282704782894FF2FF731A40F0
:1024C000828182890A438281704721B1828942F0E8
:1024D0000202828104E082894FF6FD731A408281F4
:1024E0007047028A4FF6DF731A400282028A0A435B
:1024F0000282704721B1028A42F48042028204E0E3
:10250000028A4BF6FF731A4002827047C1F3080239
:102510008280704701468888C0F30800704781892F
:1025200041F0010181817047028BD2B20283028B9C
:1025300042EA012202837047028B02F47F42028347
:10254000028B0A430283704721B1828A42F0200243
:10255000828204E0828A4FF6DF731A4082827047DB
:1025600021B1828A42F01002828204E0828A4FF610
:10257000EF731A408282704721B1828A42F00802CA
:10258000828204E0828A4FF6F7731A408282704793
:1025900021B1828942F40042828103E08289C2F340
:1025A0000E028281704721B1828A42F400628282E7
:1025B00004E0828A4FF2FF731A4082827047828A57
:1025C0004FF6FB731A408282828A0A4382827047E6
:1025D00021B1828A42F00202828204E0828A4FF6AE
:1025E000FD731A408282704702460020B1F5007FD9
:1025F00000D100BF13880B400BB1012000E0002088
:10260000704701F40072B2F5007F00D100BFCA43E9
:102610000280704770B50246002400230025002088
:1026200040F66A16B14200D100BFC1F3421501F075
:102630001F03012606FA03F3012D02D196893340C8
:1026400006E0022D02D1168A334001E0968A33401B
:102650000C12012606FA04F41688344013B10CB1AA
:10266000012000E0002070BD10B50022002340F6DC
:102670006A14A14200D100BF0A1201249440A3B2FF
:10268000DC43048010BD00000038014000440040DD
:1026900000480040004C00400050004010B56FF072
:1026A0000400FDF7CCFF2E4800682E49B0FBF1F086
:1026B0002D4908700846007800EB4001C1EBC010BE
:1026C0004FF6FF7101EAC0002849088010BD01469D
:1026D000254A12784A434FF0E0235A6100229A615A
:1026E0001A46126942F001021A6100BF4FF0E0225F
:1026F000106900F001021AB100F48032002AF5D00E
:102700004FF0E022126922F001024FF0E0231A613B
:1027100000229A6170470146144A12884A434FF0DA
:10272000E0235A6100229A611A46126942F00102BE
:102730001A6100BF4FF0E022106900F001021AB1E7
:1027400000F48032002AF5D04FF0E022126922F026
:1027500001024FF0E0231A6100229A6170470000E5
:102760000000002000127A00780000207A0000208B
:10277000014600BF70470E4A12785AB900BF0D4A91
:10278000128802F04002002AF9D0C2B2094B1B1D88
:102790001A800AE000BF084A128802F04002002AAC
:1027A000F9D0C2B2044B1B1D1A807047704700005D
:1027B0001B000020004800400038014008B50121FE
:1027C0000420FEF7F5FD2020ADF8000048208DF82C
:1027D000030069464B48FEF7C9FA08BD01464A485E
:1027E000006828B949480088401C484A108002E027
:1027F0000020464A10804448006828B944480078C0
:1028000010B90120424A107042480078B0B94048DF
:102810000078012807D140480078401C3E4A1070DB
:1028200001203C4A10703C480078022806D1002064
:10283000394A1070394A10800220704732480068C7
:10284000012804D10020324A1070324A10703248F8
:10285000007801281CD131480088401C2F4A108084
:102860001046008888420ADD28480088884206DA37
:102870000020294A1070294A10800120DDE72348F2
:102880000088884204DD0020234A1070234A10800B
:102890000020D2E72248007838B11B48006820B9F0
:1028A00000201F4908700120704717480068012860
:1028B00001D11B4908700020F6E71A48008840B98A
:1028C0001148006828B918480088401C164908803B
:1028D00002E000201449088013480088C82807DD5A
:1028E00001201049088000200F490880012070470E
:1028F0000C480088012802D100200A4908800020E5
:10290000F5E7000000080140140121428600002084
:102910008000002081000020820000208400002030
:10292000880000208C0000208A00002010B50A4694
:102930001AB10123FE4C236002E00023FC4C23600B
:10294000002115E00023FB4C236000F0800323B13D
:102950000123F84C0834236003E00023F54C0834CD
:1029600023600123F34C23604306180E4B1CD9B29D
:102970000829E7DB0123EE4C236010BD30B50024AD
:102980001CE004F1B001C8B20021FFF7CFFF002125
:102990000846FFF7CBFF00211020FFF7C7FF0025F7
:1029A00008E0E54901EBC501085D0121FFF7BEFF25
:1029B000681CC5B2802DF4DB601CC4B2082CE0DBBF
:1029C00030BD00B500218D20FFF7B0FF002114209D
:1029D000FFF7ACFF0021AF20FFF7A8FF00BD00B557
:1029E00000218D20FFF7A2FF00211020FFF79EFF9E
:1029F0000021AE20FFF79AFF00BD30B500240CE0A7
:102A0000002506E00020CC4901EBC5010855681CF3
:102A1000C5B2802DF6DB601CC4B2082CF0DBFFF7DA
:102A2000ADFF30BDF0B5144600267F2801DC3F29FC
:102A300000DDF0BD0B46CF1701EB5777FF10C7F154
:102A40000707FAB2CF1701EB5777FF10A1EBC707C3
:102A5000FDB2C5F107070123BB40DEB24CB1B64B56
:102A600003EBC0039B5C3343B34F07EBC007BB547E
:102A700008E0B14B03EBC0039B5CB343AE4F07EBE5
:102A8000C007BB5400BFD4E72DE9F04F80460C4689
:102A900015461E46A346A5F12000C5B200273EE01C
:102AA0000C2E07D105EB4500A44901EB800010F87E
:102AB000079004E0A24800EB051010F807904FF0D3
:102AC000000A26E009F0800028B121464046099A14
:102AD000FFF7A8FF09E0099808B9012000E00020ED
:102AE000024621464046FFF79DFF4FEA49604FEA04
:102AF0001069601CC4B2A4EB0B00B04205D15C4667
:102B000008F1010000F0FF0806E00AF1010000F002
:102B1000FF0ABAF1080FD5DB00BF781CC7B2B74275
:102B2000BEDBBDE8F08F10B50246012000E0504347
:102B30000B1EA1F10104E1B2F9D110BD2DE9FF4F47
:102B400081B0074691461E460E9D4FF0000A0024B4
:102B500039E0301B401EC1B20A20FFF7E4FFB9FB89
:102B6000F0F00A21B0FBF1F201FB1208BAF1000FFC
:102B700016D1701EA04213DDB8F1000F0ED1012056
:102B8000AB4605EBDB71491001FB04710090C8B244
:102B90002B4620220299FFF777FF12E04FF0010A3F
:102BA0000120AB4605EBDB71491001FB047100907D
:102BB000C8B208F13001CAB22B460299FFF764FF90
:102BC00000BF601CC4B2B442C3DB05B0BDE8F08FE7
:102BD00078B505460E46144618E07A2D03DD00252B
:102BE00006F11000C6B23A2E04DD00200546064666
:102BF000FFF703FF0120009022780C23314628467E
:102C0000FFF742FF05F10800C5B2641C20780028D8
:102C1000E3D178BD08B501210420FEF7C9FBB0203F
:102C2000ADF8000010208DF8030002208DF802009E
:102C300069464448FEF79AF801210820FEF7B8FBE0
:102C40000320ADF8000002208DF8020010208DF85E
:102C5000030069463C48FEF789F80120FEF7DFF9DA
:102C60000020FEF712FB0020FDF73BFF0020FEF7DF
:102C7000D6F900202F49091F08606420FFF74BFD9B
:102C800001203249C1F890010021AE20FFF74EFE2D
:102C90000021D520FFF74AFE00215020FFF746FE15
:102CA0000021A820FFF742FE00213F20FFF73EFE53
:102CB0000021D320FFF73AFE00210846FFF736FE39
:102CC00000214020FFF732FE00218D20FFF72EFE6D
:102CD00000211420FFF72AFE00212020FFF726FE06
:102CE00000210220FFF722FE0021A120FFF71EFE97
:102CF0000021C020FFF71AFE0021DA20FFF716FEA0
:102D000000211220FFF712FE00218120FFF70EFEA6
:102D10000021EF20FFF70AFE0021D920FFF706FE71
:102D20000021F120FFF702FE0021DB2010E000006F
:102D30008081214294012142BC010020BAAF0008E9
:102D40002EB4000800080140000C014000002142A0
:102D5000FFF7ECFD00213020FFF7E8FD0021A42063
:102D6000FFF7E4FD0021A620FFF7E0FD0021AF20E2
:102D7000FFF7DCFDFFF741FE08BD000000B587B09E
:102D800001214FF40170FEF713FB4FF40040FEF7F2
:102D900073FA4020ADF8040000208DF8070001A967
:102DA0003648FDF7E3FF3648FDF768FC0020029047
:102DB0008DF80C008DF80D004FF460200490002079
:102DC000059001208DF8180002A92D48FDF77DFC23
:102DD00001212B48FDF7A5FC2948FDF7C4FC00BFE5
:102DE0002748FDF7C5FC0028FAD12548FDF7CAFCA5
:102DF00000BF2348FDF7CBFC0028FAD107B000BD87
:102E000010B504460723012221461D48FDF7F5FCB5
:102E100001211B48FDF7C5FC00BF02211848FDF742
:102E200031FE0028F9D01648FDF74EFD10BD2DE902
:102E3000F04F85B00620FFF7E3FF019007F03CF963
:102E40004FF066320F4BCDE9020107F085F980465D
:102E500000220D4B07F080F9064600220B4B07F0CD
:102E60007BF9044600220A4B06F04CFF824607F02D
:102E7000DDF80490049805B0BDE8F08F000801402B
:102E80000024014066660A400000264000005940C8
:102E90000000B04030B585B005460C460121022047
:102EA000FEF793FA01210820FEF782FA0120ADF81F
:102EB000100028208DF8130004A95648FDF756FF8E
:102EC0000220ADF8100010208DF8130002208DF8BC
:102ED000120004A94F48FDF749FFADF80850ADF8BE
:102EE00004400020ADF80A00ADF8060001A94A48E8
:102EF000FEF796FB08204949088000204880012001
:102F000088800020C88008814348FEF71CFE1D20F1
:102F10008DF8000002208DF801008DF802000120DC
:102F20008DF803006846FDF740FB012209213A486D
:102F3000FEF7EDFE01213848FEF7CEFE05B030BDAC
:102F400010B50120364908600F20FFF7C0FB0020B4
:102F50003449C1F884013448007800F08000E8B1B9
:102F60003148007800F03F0030490860084600888A
:102F700000040860084600682D49098808442B4968
:102F8000086008460068AA2148434FF47A71B0FBF4
:102F9000F1F02649086000202349088010BD08B5DB
:102FA0001D208DF8000002208DF801008DF8020030
:102FB00001208DF803006846FDF7F7FA08BD3EB51D
:102FC00005460C4601210220FEF7FFF9FFF7E7FF57
:102FD000ADF80450ADF800400020ADF80200ADF8A7
:102FE000060069460C48FEF71BFB012211460A4801
:102FF000FEF78DFE01210848FEF76EFE3EBD10B5BE
:1030000001210548FFF731F918B101210248FFF706
:103010003DF910BD000C014000040040BC0500203B
:1030200084812142008021428E0000204400002043
:103030009000002008B501210420FEF7B9F94FF4F3
:103040007060ADF8000010208DF8030003208DF8AB
:10305000020069463248FDF789FE08BD30B589B0E7
:1030600005460C46FFF7E6FF0121C802FEF7A0F96E
:1030700001210420FEF79CF94FF47060ADF82000A8
:1030800018208DF8230003208DF8220008A9244879
:10309000FDF76CFEADF81850ADF814400020ADF807
:1030A0001A00ADF8160005A91E48FEF7B9FA60200F
:1030B000ADF804000120ADF806000020ADF80A00CC
:1030C000ADF80C0001A91748FEF7E7FA01A9154869
:1030D000FEF725FB01A91348FEF76EFB01A9114875
:1030E000FEF7B5FB01210F48FEF702FE08210D484F
:1030F000FEF722FF08210B48FEF727FF08210948A9
:10310000FEF730FF08210748FEF735FF012105488B
:10311000FEF7E2FE01210348FEF7DEFD09B030BDF7
:1031200000080140002C014000B587B0012108468D
:10313000FEF74BF901210420FEF73AF90320ADF820
:10314000000004208DF8030069466148FDF70EFE7B
:1031500004A8FEF791FD0020ADF810004FF6FF70B7
:10316000ADF814000020ADF81600ADF8120004A967
:103170004FF08040FEF754FA00231A4603214FF027
:103180008040FEF75CFE01A8FEF789FD0A20ADF83D
:103190000C0001A94007FEF7D6FC01218807FFF7C4
:1031A00061F8012211469007FEF7B1FD00214FF0B2
:1031B0008040FFF725F801218807FEF78DFD07B055
:1031C00000BD00B587B001210420FEF7FEF8012103
:1031D0000820FEF7EDF8C020ADF8000004208DF8BF
:1031E000030069463B48FDF7C1FD04A8FEF744FD16
:1031F0000020ADF810004FF6FF70ADF8140000206D
:10320000ADF81600ADF8120004A93348FEF708FA2D
:1032100000231A4603213048FEF711FE01A8FEF7ED
:103220003EFD0A20ADF80C0001A92B48FEF78BFCEF
:1032300001212948FFF716F8012211462648FEF71A
:1032400066FD00212448FEF7DBFF01212248FEF73E
:1032500043FD07B000BD0146022904D003290BD06D
:10326000042919D10FE04FF08042928C10B2002255
:103270004FF080439A8411E0184A128810B200225D
:10328000164B1A800AE0144A2432128810B2002227
:10329000114B24331A8001E0002000BF00BF7047AB
:1032A0000D48103000880C481030008820F00100D4
:1032B00009491031088070474FF08040008A4FF074
:1032C0008040008A20F001004FF080410882704762
:1032D00000080140000C01400008004024040040A8
:1032E00008B501210820FEF763F84FF44060ADF8FF
:1032F000000010208DF8030003208DF802006946BD
:10330000F748FDF733FD08BD10B5F548001D00680E
:1033100020F47040F249091D08600846006840F436
:10332000405008600120EF490860EF48D0F82C01B8
:1033300008B9002010BD0120EA49091F0860FFF705
:10334000C6F90020E849C1F8AC01E64880380068B9
:1033500008B10020EEE70120FFF7B9F90020E149AC
:10336000091F08600120E5E710B5DD48001D006871
:1033700020F47040DA49091D08600846006840F4EE
:10338000405008600020D749091F0860D649C1F89D
:10339000AC010120FFF79BF90120D249091F086009
:1033A000D149C1F8AC01FFF792F910BD10B5002466
:1033B000CB48001D006820F47040C949091D086011
:1033C0000846006840F4004008600120C5490860D4
:1033D000FFF77DF90120C449C1F8A801FFF777F98B
:1033E0000AE0601CC4B2322C03DDFFF7BDFF0020F1
:1033F00010BD0120FFF76BF9BA488038006800283B
:10340000EFD1B849091F08600120F1E710B500208D
:10341000B449091F0860B248001D006820F47040DC
:10342000AF49091D08600846006840F44050086034
:103430000020AD49C1F8AC010120FFF748F9012097
:10344000A849091F0860FFF742F90020A649C1F802
:10345000A80110BD10B50020A249091F0860A048AE
:10346000001D006820F470409D49091D0860084651
:10347000006840F44050086001209B49C1F8AC014D
:10348000FFF725F901209749091F0860FFF71FF989
:1034900000209549C1F8A80110BD70B504469048B8
:1034A000001D006820F470408D49091D0860084621
:1034B000006840F44050086000208A49091F0860F5
:1034C000002516E0E009874908606006040E012027
:1034D000FFF7FDF801208449C1F8A801FFF7F7F8CC
:1034E00000208049091F08600120FFF7F0F8681CE0
:1034F000C5B2082DE6DB70BD2DE9F04105460E464C
:1035000017469846FFF700FF10B90120BDE8F0818B
:103510006906080EFFF7C1FFFFF748FF18B9FFF76C
:1035200023FF0120F2E73046FFF7B7FFFFF73EFF2A
:1035300000240BE018F80400FFF7AFFFFFF736FF99
:1035400018B9FFF711FF0020E0E7641CBC42F1DB73
:10355000FFF70AFF0020D9E770B505460024604850
:10356000001D006820F470405D49091D0860084690
:10357000006840F400400860002617E00020594928
:10358000091F08600220FFF7A2F801205649C1F880
:10359000A8016006040E53488038006808B1601C1A
:1035A000C4B20220FFF793F8701CC6B2082EE5DB08
:1035B00015B1FFF72BFF01E0FFF74CFF204670BD70
:1035C0002DE9F04106460F4614461D46FFF79CFEC6
:1035D00010B90120BDE8F0817106080EFFF75DFF0C
:1035E000FFF7E4FE18B9FFF7BFFE0120F2E7384607
:1035F000FFF753FFFFF7DAFEFFF786FE012101EB2D
:103600004601C8B2FFF749FFFFF7D0FE0DE0012CDD
:1036100004D10020FFF7A0FF287003E00120FFF78E
:103620009BFF28706D1C601EC4B2002CEFD1FFF709
:103630009BFE0020CEE770B505460E460024FFF73E
:1036400063FE2846FFF729FF641CFFF7AFFE3046F4
:10365000FFF723FF641CFFF7A9FEFFF755FE691C67
:10366000C8B2FFF71AFF641CFFF7A0FE0020FFF7A7
:1036700073FF0446FFF778FE204670BD2DE9F04148
:103680000746884615461E460024FFF73DFE38468D
:10369000FFF703FFFFF78AFE4046FFF7FEFEFFF746
:1036A00085FEFFF731FE791CC8B2FFF7F6FEFFF783
:1036B0007DFE00BF0DE0681EA04204D00120FFF790
:1036C0004BFF305503E00020FFF746FF3055601CEC
:1036D000C4B2AC42EFDBFFF747FE2046BDE8F08105
:1036E000000C0140AC812142008021422DE9F041D3
:1036F00080460D4616461F460024FFF705FE40464D
:10370000FFF7CBFEFFF752FE2846FFF7C6FEFFF796
:103710004DFE00BF06E0385DFFF7BFFEFFF746FE37
:10372000601CC4B2B442F6DBFFF71EFE0120BDE808
:10373000F08170B505460E46144631462846FFF71F
:103740007AFF2070012070BD37B504460D4602ABEC
:10375000012229462046FFF7C9FF3EBD2DE9F84367
:103760000746884614461D46089E6A464146384626
:10377000FFF7DFFF28B3601CFF2101FA00F0C4F15E
:1037800008012944491EFF220A41104300F0FF09A5
:10379000C5F1080006FA00F0C6B2C4F10700064100
:1037A0009DF8000000EA090000909DF800003043F9
:1037B00000909DF8002041463846FFF7C5FFBDE860
:1037C000F8830020FBE7F8B506460F4614461D4671
:1037D0006A4639463046FFF7ACFF2DB10120A040C4
:1037E0009DF80010084305E00120A0409DF800105E
:1037F00021EA0000C0B200909DF800203946304612
:10380000FFF7A2FFF8BD000010B586B00446012105
:103810000820FDF7CDFD01218804FDF7D6FD4FF40A
:103820008060ADF8140003208DF8160018208DF884
:10383000170005A9F148FDF799FA4FF40060ADF8BB
:10384000140004208DF8170005A9EC48FDF78EFA46
:1038500027208DF8000000208DF8010001208DF850
:1038600002008DF803006846FCF79FFE01940020DB
:10387000ADF80800ADF80A00ADF80C00ADF8100086
:103880000C20ADF80E0001A9DD48FEF746FD01222F
:1038900040F22551DA48FEF7D8FD0121D848FEF75D
:1038A000C8FD06B010BD2DE9FF5F40F22551D44898
:1038B000FEF7B0FE002876D0D148FEF72BFED149A6
:1038C000086008460078D0490870CE48006859283A
:1038D00002D10220CD490870CA480068582802D198
:1038E0000120CA490870C74800680A2865DDC54834
:1038F00000685A2809D10020C5490870C5490870D8
:10390000C5490870C549087057E0BE48006841289D
:103910000AD10120BE4908700020BE490870BE4986
:103920000870BE49087048E0B648006845280BD1C9
:103930000020B74908700120B64908700020B64938
:103940000870B649087038E0AE480068422807D0D1
:10395000AC480068432803D0AA48006844280AD12C
:103960000020AB490870AB490870AB4908700120D2
:10397000AA49087021E0A3480068462807D0A1485A
:103980000068472803D09F48006848280CD10020D1
:103990009F4908709F49087001209F4908700020C6
:1039A0009E49087009E009E1002099490870994989
:1039B00008709949087099490870924800680A2867
:1039C00065DA0120914908708E48006848B90020E6
:1039D0008F4908708F4908708F4908708F490870A7
:1039E00055E088480068012809D1894908700020FD
:1039F00088490870884908708849087047E08148FC
:103A0000006805280BD100208149087001208149F8
:103A100008700020804908708049087037E07948B4
:103A20000068022807D077480068032803D075484B
:103A3000006804280AD1002075490870754908708B
:103A40007549087001207549087020E06D480068CC
:103A5000062807D06B480068072803D0694800682B
:103A600008280BD100206A4908706A4908700120B3
:103A70006949087000206949087008E0002064491D
:103A800008706449087064490870644908705E48A9
:103A900000787B2802D10120614908705A480078DB
:103AA0007D2802D102205E4908705D480078012817
:103AB0000AD1554800785B495B4A127888545A48C5
:103AC0000078401C5849087055480078022875D184
:103AD0005448C078502803D10120544908707DE033
:103AE0005048C078572803D101205149087075E02B
:103AF0004C484078232871D04B4800784D490870D5
:103B000034E0494909784B4A1278881A06F0BDFA20
:103B1000804642460B460020474905F0F3FA04462A
:103B20000D4644490978491E3E4A515CA1F13000D6
:103B300006F0ABFA064622462B4606F00DFB8246FF
:103B40008B463E48006806F017FE52465B46CDE9BC
:103B5000000106F01BF8CDE9020105F0E5FF374949
:103B6000086034480078401E3249087031480078B7
:103B70000428C6DA2B484078303809282DD2DFE8EF
:103B800000F0050D151E262728292B002C492B484F
:103B9000006806F08BFE2B4908601EE02849274884
:103BA000006806F083FE2849086016E0244923488F
:103BB000006806F07BFE254908600EE01BE0204906
:103BC0001E48006806F072FE2149086005E004E026
:103BD00003E002E001E001E000BF00BF0020104967
:103BE000087011490870134908701449086032219F
:103BF0000C4804F059FDBDE8FF9F0000000C014097
:103C00000048004098000020940000201900002087
:103C100015000020160000201700002018000020CA
:103C20009C000020C60500209D0000204B000020C5
:103C30004C0000209E00002000002440A000002036
:103C40000000C84254000020580000205C00002002
:103C5000600000201FB501210846FDF7A9FB0121E6
:103C60000420FDF7A5FB4FF48050ADF80C00482070
:103C70008DF80F0003A91248FDF778F80C210020F9
:103C8000FDF78AF94FF48050019000208DF808006C
:103C90000C208DF8090001208DF80A0001A8FCF71E
:103CA00085FF28208DF8000002208DF801000120FA
:103CB0008DF802008DF803006846FCF776FC1FBD06
:103CC0000008014010B586B0044601210420FDF72C
:103CD0006FFB01214804FDF778FB0820ADF81400C4
:103CE00004208DF8170005A99E48FDF73FF8042031
:103CF000ADF8140003208DF8160018208DF8170079
:103D000005A99848FDF732F801940020ADF80800A5
:103D1000ADF80A00ADF80C00ADF810000C20ADF8BD
:103D20000E0001A99048FEF7F8FA012240F2255151
:103D30008D48FEF78AFB002240F227718A48FEF781
:103D400084FB01218848FEF774FB4FF4E060FCF728
:103D500027FC26208DF8000002208DF801008DF848
:103D6000020001208DF803006846FCF71EFC06B037
:103D700010BD10B540F225517B48FEF74BFC0028E2
:103D80007AD020217848FEF73CFC7748FEF7C2FB4A
:103D900076490860084600787549087073480068DD
:103DA000592802D1022073490870704800685828C9
:103DB00002D101206F4908706C4800680A2865DD4F
:103DC0006A4800685A2809D100206B4908706B497D
:103DD00008706B4908706B49087057E063480068C9
:103DE00041280AD101206449087000206349087005
:103DF000634908706349087048E05C4800684528DA
:103E00000BD100205C49087001205C49087000203B
:103E10005B4908705B49087038E0544800684228E4
:103E200007D052480068432803D05048006844280F
:103E30000AD1002050490870504908705049087054
:103E400001205049087021E048480068462807D002
:103E500046480068472803D04448006848280CD1E9
:103E60000020454908704549087001204449087000
:103E700000204449087009E01BE000203E4908701A
:103E80003E4908703E4908703E490870374800684E
:103E90000A2865DA0120374908703448006848B9B3
:103EA0000020354908703549087035490870354992
:103EB000087055E02D480068012809D12E49087086
:103EC00000202E4908702E4908702E49087047E0DE
:103ED0002648006805280BD10020274908700120DA
:103EE000264908700020264908702649087037E0E6
:103EF0001E480068022807D01C480068032803D029
:103F00001A48006804280AD100201B4908701B4980
:103F100008701B49087001201A49087020E01348F6
:103F20000068062807D011480068072803D00F480A
:103F3000006808280BD100200F4908700F4908704D
:103F400001200F49087000200E49087008E0002089
:103F50000949087009490870094908700949087039
:103F600010BD00000008014000440040A8000020EF
:103F700094000020190000201500002016000020E9
:103F8000170000201800002070B504460D46002CD4
:103F900008DBA1B2FE48FEF73BF90021FC48FEF722
:103FA00039F908E00021FA48FEF732F9604281B29F
:103FB000F748FEF72FF9002D08DBA9B2F448FEF709
:103FC00023F90021F248FEF721F908E00021F0482A
:103FD000FEF71AF9684281B2ED48FEF717F970BD95
:103FE00070B50546EB49284606F0BEFD08D3EA4900
:103FF000284606F0B9FE03D3E8480078012811D11D
:1040000001240021E248FEF7FFF80021E048FEF716
:10401000FDF80021DE48FEF7FBF80021DC48FEF742
:10402000F9F800E00024204670BD2DE9F041074674
:104030000C4615461E46D948007810B90120BDE847
:10404000F081D749384606F08FFE1DD2D549384653
:1040500006F08AFD18D2D249204606F085FE13D21A
:10406000D049204606F080FD0ED26DB966B9CE4823
:104070000088401CCC49088008460088C82806D122
:10408000002008800120DAE70020C74908800020CE
:10409000D5E70146002901DA484200E008467047AA
:1040A00000B502460B46BD480078012800D100BD8E
:1040B000D018FFF7EEFF872801DD0120F7E7002089
:1040C000F5E741F6F420B9490978012904D1B84946
:1040D00009686431B64A1160B6490978012904D1EA
:1040E000B54909686439B44A1160B1490968424266
:1040F000914202DA4142AE4A1160AD4909688142FB
:1041000001DDAB490860AC4909684242914202DADC
:104110004142A94A1160A8490968814201DDA649C6
:10412000086070472DE9F84F05460E469146A348B2
:104130000078582191FBF0F7384606F0E9FC044678
:10414000DFF87CA24FF0000B9E480078012803D0D6
:104150009D480078012834D14FF07E519B4800687B
:1041600006F036FB9949074608604FF07E5106F08D
:104170005FFC07D1A819FFF78CFF074606F0C8FCC3
:104180009349086092480168924806F08FFB924973
:1041900008600846006806F0EFFA07464FF0333231
:1041A0008E4B05F09DFF02D28D488B4908608D49EA
:1041B0008948006806F0D8FD0BD28A488649086015
:1041C00007E08948844908600020804908608049E8
:1041D00008607C480078012808D17F48016883483E
:1041E000006806F0FDFD814908600FE07648007820
:1041F000012808D1784801687C48006806F0E8FA90
:104200007A49086002E00020784908602146774832
:10421000006806F0A9FD01D27448046084F00047EC
:1042200072480168384606F09FFD03D284F00040D2
:104230006E4908605D480078012803D05D48007829
:10424000012802D14FF07C5B01E04FF0000B594692
:10425000484606F0BDFC00906448006880F00048C5
:104260005146404606F0B4FC0746009906F0B8FDFA
:104270005F4908600846006806F00EFCBDE8F88F4C
:104280002DE9FC5F044689464C480078022803D19A
:1042900058485949086002E058485749086043485F
:1042A0000078012804D154480068554908600DE0A1
:1042B00040480078012806D14F48006880F000404F
:1042C0004F49086002E000204D49086004EB0900F6
:1042D00006F01EFC05464A480168284606F080FDA7
:1042E000484908604848006806F046FA0746474AC9
:1042F000474B05F031FF054605F016FC42490860C2
:104300004048006806F038FA0546404A414B05F03F
:1043100023FF074688463C48006806F02DFA82468F
:104320003A46434605F032FCCDE9000105F0FCFBBE
:1043300035490860084601683748006806F048FAC1
:104340003549086035493448006806F00DFD02D251
:1043500032483149086032492F48006806F004FCB1
:1043600002D22F482C4908602E4801682A4800686C
:1043700006F02EFC05462C4801682348006806F02C
:1043800027FC0646294606F023FA284908604FE034
:10439000002C0140000020C2000020421A00002032
:1043A0000000A0C00000A040F40000201500002084
:1043B0002400002016000020280000201900002002
:1043C000000028421700002018000020F000002004
:1043D000E800002000004842EC0000203333E33FB7
:1043E0009A99193F000040406666663FE000002051
:1043F000E400002000007041DC0000200000F041DB
:10440000D4000020CC000020D00000209A99999977
:104410009999E93F9999C93FD800002000401C466E
:1044200000401CC6600000205C000020C800002086
:10443000F6480068FFF7D4FD012803D0F44800785F
:10444000012802D10020F3490860F348006806F013
:1044500023FBBDE8FC9F2DE9F04705460C460021F3
:10446000284606F0BDFC8046EC480168204606F070
:10447000AFFB81464146EA48006806F0A9FB824648
:10448000494606F0A5F9074606F006FB0646304603
:10449000BDE8F0872DE9F04F89B0814603F02EFB8F
:1044A000E0490860B9F1010F1ED103F061FADE485E
:1044B000006880F00040D5490860DC49B1F902107D
:1044C000484206F025FBDA490860D849B1F90400F2
:1044D00006F01EFBD7490860D749B1F9040006F081
:1044E00017FBD6490860B2E04421D020FFF7A3F8BB
:1044F00080464321D020FFF79EF808EB002738467E
:1045000006F006FB04464821D020FFF794F88046C9
:104510004721D020FFF78FF808EB0027384606F038
:10452000F7FA06463E21D020FFF785F880463D2168
:10453000D020FFF780F808EB0027384606F0E8FAAD
:1045400082464021D020FFF776F880463F21D020D8
:10455000FFF771F808EB0027384606F0D9FA054650
:104560004FF08E41204606F0FFFB05D24FF08F4101
:10457000204606F035FC04464FF08E41304606F0EA
:10458000F3FB05D24FF08F41304606F029FC06467A
:104590004FF08E41504606F0E7FB05D24FF08F41B9
:1045A000504606F01DFC82464FF08E41284606F02C
:1045B000DBFB05D24FF08F41284606F011FC054683
:1045C0009B480460284606F0D7F8CDE90001504624
:1045D00006F0D2F80746DDE9002304F0C5FC00220E
:1045E000974BCDE9020105F0B7FD964A964BCDE910
:1045F000040105F087FBCDE9060105F095FA834635
:10460000204606F0B9F84FF06632904BCDE906012E
:1046100005F078FB074605F087FA04468C480078D9
:10462000022804D12146584603F0E4FD07E08848FB
:104630000078032803D12146584603F0F2FE85484E
:104640000068724908607B4806607C48056009B0D4
:10465000BDE8F08F10B58048006800287ED14FF487
:1046600080507E4908607E48007808B9012000E04B
:1046700000207B4908707B48007801280BD17A48DC
:104680000078401CC0B2784908700A2803D1002085
:1046900008707449087072480078012825D16C4868
:1046A0000078FFF7F7FEFEF7C2FB7049086070481C
:1046B0000068401C6E4908606E4800686B490968D4
:1046C00008446C4908606A48006864280BD10846B1
:1046D0000068642190FBF1F067490860002065499B
:1046E000086063490860002010BD0220FEF7B3FD9A
:1046F0004042624908600420FEF7ADFD6049086051
:1047000053480078FFF7C6FE494801683F480068F3
:10471000FFF7A1FE5B4908605948016857480068E7
:10472000FFF7AEFD584908604248026854480168E6
:1047300052480068FFF7F6FC544908605148006889
:1047400051490968084451490968401A50490860AC
:104750004C4800684C490968084400E02CE04B498B
:10476000096808444B490860FFF7ABFC44480168FE
:1047700042480068FFF794FC10B1012024490870FA
:104780004548006880F000443D4803683B482146A6
:1047900002681E480068FFF748FC10B100201C4961
:1047A00008701A480068FFF71BFC28B939480168EF
:1047B00037480068FFF7E8FB002095E770B5322026
:1047C000FEF70CF80546012D07D11148007808B90D
:1047D000012000E000200E490870022D07D12F486B
:1047E000007808B9012000E000202C490870FEF78D
:1047F00064F80446012C07D12948007808B9012043
:1048000000E000202649087070BD00003400002040
:104810001A000020D8000020C80000205800002006
:10482000540000202C00002034010020240100202E
:10483000380000203C0000202A0100205000002009
:1048400000806640F1D4C853FB21094066663040C1
:10485000140000206C0100203001214214040140AA
:10486000B80000204900002048000020BC000020C3
:10487000C0000020C4000020300000201C000020E8
:1048800020000020AC000020B0000020B400002078
:104890002400002028000020380100201B000020F8
:1048A0004A00002038B50446FB4890F82400C0B107
:1048B00014B10220009001E000200090F64A126836
:1048C000D17BF54A526810786B460122FEF714FE40
:1048D00010B14FF0FF3038BD9DF80010EE48417424
:1048E00023E0ED48807A10B94FF0FF30F3E724B1B0
:1048F000E948407C08B10020EDE714B101200090A8
:1049000001E000200090E44A1268D17BE24A52683C
:1049100010786B460122FEF7EFFD10B14FF0FF302B
:10492000D9E79DF80010DC4841740020D3E738B582
:10493000002419E0D8480068C07AA04204D0D648C4
:104940000068407DA04200D10CE0D3494968087856
:104950006B4601222146FEF733FE10B14FF0FF30C7
:1049600038BD00BF601CC4B2CB4840680079A0428B
:10497000E0DC0020F4E770B504460D46C648006848
:10498000C07AA04204D0C4480068407DA04202D151
:104990004FF0FF3070BDC04840680079A04202DC93
:1049A0004FF0FF30F6E7BC49496808782B460122F2
:1049B0002146FEF705FEEDE738B50446B64890F807
:1049C0002300A04201D1002038BD14B13020009056
:1049D00001E000200090B048807C20B19DF80000EC
:1049E00040F002000090AC4890F8220020B19DF801
:1049F000000040F080000090A74A1268117DA64A8E
:104A0000526810786B460122FEF776FD10B14FF028
:104A1000FF30D9E7A04880F823400020D4E738B51C
:104A2000044604F0700010B10120009005E014B1BC
:104A30000020009001E040200090974A1268917C8D
:104A4000954A526810786B460122FEF755FD20B159
:104A5000002191488172481E38BD9DF8000020F069
:104A600040018D4801730020009004F0400020B9FF
:104A70009DF8000040F00400009004F0200020B9F0
:104A80009DF8000040F00200009004F0100020B9F2
:104A90009DF8000040F00100009004F0080020B9EB
:104AA0009DF8000040F0380000907B4A1268D17CED
:104AB000794A526810786B460122FEF71DFD20B13D
:104AC000002175488172481EC6E724B1082C02D027
:104AD0000020FFF771FF70488472002101753220B9
:104AE000FDF719FE0020B7E738B504466A48807C18
:104AF000A04201D1002038BD002C46D0664A126881
:104B00001179654A526810786B460122FEF758FD0C
:104B100010B14FF0FF30EEE79DF8000020F02000CC
:104B200000905D4A126811795B4A526810786B46B2
:104B30000122FEF7E1FC10B14FF0FF30DBE703206C
:104B4000FDF7E9FD02200090534890F8220020B1C3
:104B50009DF8000040F0800000904F4890F823003E
:104B600020B19DF8000040F0300000904A4A1268E1
:104B7000117D494A526810786B460122FEF7BCFC51
:104B8000002851D04FF0FF30B5E7434A1268117941
:104B9000414A526810786B460122FEF711FD10B1B0
:104BA0004FF0FF30A7E73C48807A00F0010028B1C1
:104BB0009DF8000040F02000009004E09DF8000007
:104BC00020F020000090344A12681179324A52686D
:104BD00010786B460122FEF78FFC10B14FF0FF30CA
:104BE00089E70320FDF797FD2B4890F8220010B1CC
:104BF0008020009001E000200090274890F82300DA
:104C000020B19DF8000040F030000090224A126868
:104C1000117D214A526810786B460122FEF76CFC28
:104C200010B14FF0FF3066E71B488474002062E744
:104C300008B51948807A10B94FF0FF3008BD002040
:104C40000090154A1268D17B134A526810786B465F
:104C50000122FEF751FC10B14FF0FF30EEE70E4A93
:104C6000126851790C4A526810786B460122FEF79F
:104C700043FC10B14FF0FF30E0E7074A12681179AA
:104C8000054A526810786B460122FEF735FC28B1C0
:104C90004FF0FF30D2E70000F8000020F74890F80E
:104CA0002400002850D00C200090F44A126811799A
:104CB000F24A526810786B460122FEF71DFC10B1D3
:104CC0004FF0FF30BAE7C0200090EC48807A00F047
:104CD000010020B19DF8000040F020000090E74A5C
:104CE00012681179E54A526810786B460122FEF786
:104CF00003FC10B14FF0FF30A0E7E048407C10B15A
:104D00000220009001E000200090DC4A1268D17B74
:104D1000DA4A526810786B460122FEF7EDFB10B1BB
:104D20004FF0FF308AE700200090D44A1268517992
:104D3000D24A526810786B460122FEF7DDFB00284C
:104D400052D04FF0FF3079E704200090CB4A126830
:104D50001179CA4A526810786B460122FEF7CCFBE3
:104D600010B14FF0FF3069E7C448807C20B9C348D8
:104D7000807A00F0010010B94020009001E060202E
:104D80000090BE4A12681179BC4A526810786B468E
:104D90000122FEF7B1FB10B14FF0FF304EE7B748EC
:104DA000407C10B10120009001E000200090B34A47
:104DB0001268D17BB14A526810786B460122FEF727
:104DC0009BFB10B14FF0FF3038E7AC4A12685179C5
:104DD000AA4A52681078A94B10330122FEF78CFBC7
:104DE00010B14FF0FF3029E7002027E770B50446E7
:104DF000002624F00104A14890F8240008B1002006
:104E000070BD9E48807A10B94FF0FF30F8E79B489C
:104E1000057C807A2040994908740846007CA042AD
:104E200002D04FF0FF3600E0002614B99348007D11
:104E300018B10120FFF736FD02E00020FFF732FD38
:104E40003CB1FFF7F5FE20B18C4805744FF0FF3000
:104E5000D6E73046D4E738B504468848807A10B99A
:104E60004FF0FF3038BDBC2C02DB0120009015E074
:104E7000622C02DB0220009010E02A2C02DB0320CF
:104E800000900BE0142C02DB0420009006E00A2CBA
:104E900002DB0520009001E0062000907748C07AF0
:104EA0009DF80010884201D10020DBE7734A1268A8
:104EB0009178724A526810786B460122FEF71CFB0B
:104EC00010B14FF0FF30CDE79DF800106B48C17274
:104ED0000020C7E738B50446282C02DD4FF0FF302C
:104EE00038BDDCB90020FFF767FD00208DF8000019
:104EF00007208DF80100614A1268917C5F4A526870
:104F000010786B460222FEF7F7FA10B14FF0FF302F
:104F1000E6E70021594801750020E1E70120FFF78D
:104F20004BFD20208DF80000012C06D100208DF8CB
:104F300001000520FFF78FFF17E0052C06DC01209C
:104F40008DF801000520FFF786FF0EE0142C06DC2B
:104F500002208DF801000A20FFF77DFF05E0032005
:104F60008DF801001420FFF776FF9DF8010007215E
:104F700001EB8010C0B28DF80100404A1268917CAC
:104F80003E4A526810786B460222FEF7B5FA10B11D
:104F90004FF0FF30A4E708213848817200210173E7
:104FA000012101750020FFF721FF002098E738B5A7
:104FB00004463248807A10B94FF0FF3038BD2F4890
:104FC00090F8240010B14FF0FF30F7E72B48007D38
:104FD00050B134B1282C04DCE0B2FFF77BFF002095
:104FE000ECE70020FFF776FF042C01DA042404E04C
:104FF000B4F57A7F01DD4FF47A744FF47A7090FB48
:10500000F4F0401EC0B200901C4A126851781B4A4E
:10501000526810786B460122FEF76EFA10B14FF01D
:10502000FF30CBE79DF80000401C4FF47A7191FBF4
:10503000F0F081B21148C1810146C9894810FFF7DB
:105040000AFF0020BAE738B504460C48807A10B948
:105050004FF0FF3038BD022C06D0042C07D0082CAE
:1050600008D0102C0FD10BE0002000900EE008209B
:1050700000900BE01020009008E00000F8000020F5
:105080001820009002E04FF0FF30E3E700BFF9483E
:10509000407A9DF80010B0EBE10F01D10020D9E774
:1050A000F44A1268D179F34A526810786B460122AB
:1050B000FEF722FA10B14FF0FF30CBE79DF8000069
:1050C000C110EC4841720020C4E738B50446E948F5
:1050D000807A10B94FF0FF3038BDFA2C09D0B4F502
:1050E000FA7F09D0B4F57A7F09D0B4F5FA6F0CD104
:1050F00008E0002000900BE00820009008E010205D
:10510000009005E01820009002E04FF0FF30E3E748
:1051100000BFD848007A9DF80010B0EBE10F01D134
:105120000020D9E7D34A12689179D24A52681078A0
:105130006B460122FEF7E0F910B14FF0FF30CBE7EC
:105140009DF80000C010CB4908720020C4E71CB5D0
:1051500080208DF80000C74A1268917CC54A5268C9
:1051600010786B460122FEF7C7F910B14FF0FF30FF
:105170001CBD6420FDF7CFFA00208DF80000BD4A69
:105180001268917CBB4A526810786B460122FEF788
:10519000B3F910B14FF0FF30EAE7B64A1268917DDB
:1051A000B44A526810786B460622FEF709FA10B12D
:1051B0004FF0FF30DCE79DF80500C007400F9DF879
:1051C000031001F0010140EA41009DF8011001F0D7
:1051D000010140EA010494B1012C03D10121A54849
:1051E000C17431E0022C03D10021A248C1742BE02C
:1051F0002146A1A003F0A8F94FF0FF30B8E79D4A7F
:105200001268D1789B4A526810786B460122FEF7EB
:10521000D7F910B14FF0FF30AAE79DF8000000F079
:105220000F042CB99E4803F08FF94FF0FF309FE731
:10523000042C06D19BA003F087F901218D48C1748D
:1052400002E000218B48C174FF218A488172FF204F
:1052500088490872FF2187484172C1724FF6FF7179
:10526000C181FF21017481740121017380F8221032
:10527000002180F8231041750175163001604160EE
:105280008160163880F8241080F82510C1844FF40E
:10529000FA60FFF71AFF10B14FF0FF3068E7022005
:1052A000FFF7D1FE10B14FF0FF3061E72A20FFF782
:1052B000D2FD10B14FF0FF305AE73220FFF777FEF2
:1052C00010B14FF0FF3053E70020FFF78FFD10B112
:1052D0004FF0FF304CE70020FFF706FC10B14FF015
:1052E000FF3045E70020FFF79AFB002040E77047BA
:1052F0007CB504460D465F48807A00F0700010B916
:105300004FF0FF307CBD5B4A1268117B594A5268EE
:1053100010786B460622FEF753F910B14FF0FF30BC
:10532000F0E79DF801009DF8001040EA012000B26E
:1053300020809DF803009DF8021040EA012000B291
:1053400060809DF805009DF8041040EA012000B23D
:10535000A08015B12846FFF7CAFF0020D2E77CB530
:1053600004460D464348807A00F0080010B94FF01B
:10537000FF307CBD3F4A1268517B3E4A526810782C
:105380006B460622FEF71CF910B14FF0FF30F0E734
:105390009DF801009DF8001040EA012000B2208035
:1053A0009DF803009DF8021040EA012000B26080E1
:1053B0009DF805009DF8041040EA012000B2A0808D
:1053C00015B12846FFF793FF0020D2E72DE9FE4FE5
:1053D00005460C462748807A18B94FF0FF30BDE8E3
:1053E000FE8F244A1268917B224A5268107802ABE1
:1053F0000222FEF7E5F810B14FF0FF30EFE79DF81D
:1054000009009DF8081040EA012006B214B12046B8
:10541000FFF76DFF17494968C88805F091FB1549EA
:1054200001904968B1F9080005F072FB83463046E7
:1054300005F06EFB5946009005F0D2FC82460199BA
:1054400005F034FA81461F4905F0C2F980464FF055
:105450008F4105F0BDFB074605F01EFB28600020CC
:10546000BDE710B588B004461CB94FF0FF3008B056
:1054700010BD29E0F8000020556E737570706F72D2
:1054800074656420736F6674776172652070726FE3
:1054900064756374207265762025642E0A0000000E
:1054A000E0C7000848616C662073656E73697469B3
:1054B00076697479207061727420666F756E642EDF
:1054C0000D0A000000000C42206830B9606820B965
:1054D000A06810B9002008B010BDFA4949680878E2
:1054E00006AB03221146FEF76BF810B14FF0FF3008
:1054F000F1E79DF81800082101EB201000F00F00E3
:10550000ADF800009DF8190001EB201000F00F002D
:10551000ADF802009DF81A0001EB201000F00F001A
:10552000ADF8040020684100BDF90000403091FB57
:10553000F0F000B2ADF8100060684100BDF9020063
:10554000403091FBF0F000B2ADF81200A0684100CD
:10555000BDF90400403091FBF0F000B2ADF814004A
:10556000D8494968087806AB06221146FEF728F8A4
:1055700010B14FF0FF30AEE79DF819009DF81810FC
:1055800040EA012000B2ADF808009DF81B009DF82C
:105590001A1040EA012000B2ADF80A009DF81D0083
:1055A0009DF81C1040EA012000B2ADF80C00BDF8D7
:1055B0001000BDF80810084400B2ADF81000BDF8A6
:1055C0001200BDF80A10084400B2ADF81200BDF890
:1055D0001400BDF80C10084400B2ADF81400BDF87A
:1055E0001000000A8DF81800BDF81000C0B28DF848
:1055F0001900BDF81200000A8DF81A00BDF812005B
:10560000C0B28DF81B00BDF81400000A8DF81C0014
:10561000BDF81400C0B28DF81D00AA494968087889
:1056200006AB06221146FDF767FF10B14FF0FF30C1
:1056300051E700204FE70146A248007A30B1012827
:1056400007D0022809D003280FD10AE0FA200880E9
:105650000EE04FF4FA7008800AE04FF47A70088088
:1056600006E04FF4FA60088002E00020088000BFE6
:1056700000BF0020704701469248407A30B10128AF
:1056800007D0022808D003280CD108E002200870B7
:105690000BE00420087008E00820087005E01020E6
:1056A000087002E04FF0FF30704700BF8548C07CB3
:1056B00018B108784006000E08700020F4E7014693
:1056C0008048C07A082817D2DFE800F01704070ADC
:1056D0000D101318BC20088013E06220088010E031
:1056E0002A2008800DE0142008800AE00A200880A3
:1056F00007E00520088004E000BF00BF002008800C
:1057000000BF00BF0020704701466E4890F824009B
:1057100010B14FF0FF3070476A48C0890880002000
:10572000F9E7014600200880401E704701464FF00F
:10573000FF30704701466348007A30B1012807D036
:10574000022808D003280CD108E05F4808600BE06D
:105750005E48086008E05E48086005E05D48086053
:1057600002E04FF0FF30704700BF0020FBE701462A
:105770005448407A30B1012808D002280AD00328C2
:1057800010D10BE04FF4804008800EE041F69C7091
:1057900008800AE04FF48050088006E04FF4006073
:1057A000088002E04FF0FF30704700BF4548C07CE2
:1057B00010B10888401008800020F5E701464148F4
:1057C000007C08700020704701463E48807A10B186
:1057D0000120087001E0002008700020704738B5F3
:1057E00004463848807A10B94FF0FF3038BD354A4A
:1057F0001268117C334A526810786B460222FDF71A
:10580000DFFE10B14FF0FF30F0E79DF801009DF88A
:10581000001040EA012000B220800020E6E72DE9D8
:10582000FE4F0746884692461D46DDF830B00026FA
:105830000024244890F8240010B1601EBDE8FE8FBB
:10584000002028701F48807A10B94FF0FF30F5E72C
:105850001C48007C10B94FF0FF30EFE71948007C7E
:1058600000F0400008B1B01CC6B21648007C00F041
:10587000200008B1B01CC6B21248007C00F0100035
:1058800008B1B01CC6B20F48007C00F0080008B197
:10589000B01DC6B20B4A1268917A0A4A5268107853
:1058A0006B460222FDF78CFE10B14FF0FF30C5E7CA
:1058B0009DF801009DF8001040EA0129B1450BDA7E
:1058C0000020BBE7F80000200000034300008342F3
:1058D0003333034233338341FC4840684088B9EB9B
:1058E000600F17DDF94A1268517CF84A5268107847
:1058F0006B460122FDF764FE10B14FF0FF309DE7CB
:105900009DF8000000F0100020B1FFF791F96FF052
:10591000010093E75046FFF7EAFCEC4A1268D17A9F
:10592000EA4A526810786B463246FDF749FE10B1DC
:105930004FF0FF3082E799FBF6F0401E8BF8000035
:1059400000202870B4422AD0E048007C00F0080013
:1059500028B3601C1DF800001DF8041040EA012067
:1059600000B2A8F80000E01C1DF80010A01C1DF8F3
:10597000000041EA002000B2A8F80200601D1DF8F6
:105980000010201D1DF8000041EA002000B2A8F818
:105990000400287840F008002870A01D84B2B442AA
:1059A00013D0CA48007C00F0400070B1601C1DF8A4
:1059B00000001DF8041040EA012000B23880287869
:1059C00040F040002870A01C84B2B44213D0BF48FD
:1059D000007C00F0200070B1601C1DF800001DF874
:1059E000041040EA012000B27880287840F02000BE
:1059F0002870A01C84B2B44213D0B448007C00F0DC
:105A0000100070B1601C1DF800001DF8041040EA81
:105A1000012000B2B880287840F010002870A01C47
:105A200084B200200AE7F8B504460F461646A74898
:105A300090F8240010B94FF0FF30F8BDA348807AE9
:105A400010B94FF0FF30F8E7A04A1268917A9F4AE8
:105A5000526810786B460222FDF7B2FD10B14FF08C
:105A6000FF30EAE79DF801009DF8001040EA0125AB
:105A7000A54203DA00203070401EDEE793484068FC
:105A80004088B5EB600F17DD904A1268517C8F4A51
:105A9000526810786B460122FDF792FD10B14FF06D
:105AA000FF30CAE79DF8000000F0100020B1FFF7BA
:105AB000BFF86FF00100C0E7E2B2844B1B68D97AEF
:105AC000824B5B6818783B46FDF77AFD10B14FF0CA
:105AD000FF30B2E795FBF4F0401E30700020ACE7D9
